:020000040800F2
:10000000105E0620F90200083DC10008B77500081F
:1000100005030008B329000801F2000800000000F1
:1000200000000000000000000000000099D6000859
:10003000E52C000800000000C1C40008E1D8000859
:100040001303000813030008130300081303000838
:100050001303000813030008130300081303000828
:100060001303000813030008130300081303000818
:100070001303000813030008130300081303000808
:1000800013030008130300081303000813030008F8
:1000900013030008130300081303000813030008E8
:1000A00013030008130300081303000813030008D8
:1000B00013030008130300084DD9000813030008B8
:1000C00013030008130300081303000813030008B8
:1000D0001303000861F1000813030008130300086C
:1000E0001303000813030008130300081303000898
:1000F0001303000813030008130300081303000888
:100100001303000813030008130300081303000877
:100110001303000813030008130300081303000867
:100120001303000813030008130300081303000857
:100130001303000813030008130300081303000847
:100140001303000813030008130300081303000837
:100150001303000813030008130300081303000827
:100160001303000813030008130300081303000817
:100170001303000813030008130300080000000025
:1001800013030008130300081303000813030008F7
:1001900013030008130300081303000813030008E7
:1001A00013030008130300081303000813030008D7
:1001B00013030008130300081303000813030008C7
:1001C00013030008130300080000000013030008D5
:1001D00013030008130300081303000813030008A7
:1001E0001303000813030008130300081303000897
:1001F000130300081303000800F002F800F065F88C
:100200000AA090E8000C82448344AAF10107DA4571
:1002100001D100F05AF8AFF2090EBAE80F0013F05E
:10022000010F18BFFB1A43F001031847F4F804004C
:1002300014F904000A4410F8014B14F00F0508BF2C
:1002400010F8015B240908BF10F8014B6D1E05D0A2
:1002500010F8013B6D1E01F8013BF9D1641E03D07B
:10026000641E01F8015BFBD19142E4D370470000AA
:100270000023002400250026103A28BF78C1FBD8AF
:10028000520728BF30C148BF0B60704703681B0A84
:1002900028BF41F08001642901F00287752901F02F
:1002A000FF86782901F07687E42901F035876329F4
:1002B00002F04D82732902F05282002070471FB570
:1002C00017F02BFC1FBD10B510BD02F0C1FA11468E
:1002D000FFF7F5FF15F008F802F0DFFA03B4FFF7B7
:1002E000F2FF03BC0FF04DFD30BF72B6704762B62F
:1002F000704780F3088870470948804709480047DD
:10030000FEE7FEE7FEE7FEE7FEE7FEE7FEE7FEE7C5
:10031000FEE7FEE704480549054A064B7047000022
:10032000E9D80008F901000810580620105E0620E0
:10033000105A0620105A062010B5FF4800680FF02A
:1003400022FDFE4800680FF01EFDFD4800680FF01A
:100350001AFDFC4800680FF016FDFB4800680FF01E
:1003600012FDFA4800680FF00EFDF94800680FF022
:100370000AFD10BD10B500244FF400700FF00AFD07
:10038000ED4908600846006800B901244FF4007088
:100390000FF000FDE94908600846006800B9012433
:1003A0004FF400700FF0F6FCE5490860084600685D
:1003B00000B90124A0200FF0EDFCE24908600846D6
:1003C000006800B9012440200FF0E4FCDE49086019
:1003D0000846006800B9012440200FF0DBFCDB492F
:1003E00008600846006800B901244FF4F8700FF067
:1003F000D1FCD74908600846006800B901240CB157
:10040000FFF79AFF204610BD2DE9F04704460D4640
:100410001646701B00EBD07105EB610954F839707A
:1004200004EBC901486817F002FB804654F8350018
:1004300044F8390004EBC500406804EBC90148608A
:10044000A94605F1010A1DE054F83A00394617F0B3
:10045000FDFA15D854F83A0044F8390004EBCA0004
:10046000406804EBC901486009F1010954F83900FA
:1004700044F83A0004EBC900406804EBCA01486044
:100480000AF1010AB245DFDDA9EB0500012805DD0F
:10049000A9F1010229462046FFF7B6FFA6EB0900A5
:1004A000012805DD324609F101012046FFF7ACFFC6
:1004B00044F83970404617F0C1FA04EBC9014860AE
:1004C000BDE8F0872DE9F84F04460D4616461F4655
:1004D0004FF0000828E04FF0000920E04FF0000B3B
:1004E000DA4612E00B9A0AFB029255F822100A9A99
:1004F00008FB02A254F8220017F0C0FA59460090F7
:1005000017F077FA83460AF1010A0A988245E9DB77
:100510000B9808FB009046F820B009F101090B98F0
:100520008145DBDB08F10108B845D4DBBDE8F88F75
:10053000024612B909B900207047002A02DD09B944
:100540000020F9E7002903DD8A4201DD0120F3E7FD
:10055000002A03DD914201D10220EDE7002A03DDEC
:100560008A4201DA0320E7E71AB9002901DD0420F5
:10057000E2E7002A08DA101E01DB034600E04342EE
:100580008B4201DA0520D7E7002A08DA101E01DBCA
:10059000034600E043428B4201D10620CCE7002A0B
:1005A0000ADA101E01DB034600E043428B4203DD02
:1005B000002901DD0720BFE719B9002A01DA082068
:1005C000BAE7002903DA914201DD0920B4E7002AE5
:1005D00003DA914201D10A20AEE7002A03DA914200
:1005E00001DA0B20A8E71AB9002901DA0C20A3E7E9
:1005F00000290ADA081E01DB034600E04342934269
:1006000003DD002A01DD0D2096E7002908DA081E27
:1006100001DB034600E04342934201D10E208BE709
:10062000002908DA081E01DB034600E0434293423A
:1006300001DA0F2080E700207EE730B5034601B1E4
:100640000AB9002030BD412901D0412A01D1002042
:10065000F8E7491E521E03EBC20000EBE1000478EC
:1006600001F007050120A840044201D00120E9E77C
:100670000020E7E72DE9FE4F04460D4616461F46CB
:1006800000200190781C8200002132480FF089FB85
:10069000781C8200002130480FF083FB4FF00008E7
:1006A00019E04FF0000912E004EBC80000EBE9008C
:1006B000017809F0070201209040014205D04FF077
:1006C0007E51019817F095F9019009F10109B145A2
:1006D000EADB08F10108A845E3DB384617F0AEF97C
:1006E00082460146019817F099F901900120029085
:1006F00049E04FF0000AD0463AE04FF0000912E01E
:1007000004EBC90000EBE800017808F007020120C3
:100710009040014205D04FF07E51504617F069F9E4
:10072000824609F10109A945EADB029817F086F92A
:100730000090019912E000003C91022040910220BB
:1007400044910220489102204C91022050910220B5
:1007500054910220885706209C57062017F08EF9E6
:100760008346514617F072F900D804E008F10108F9
:10077000701E4045C1DC00BFFD48029940F8218051
:100780000298401C0290781C02998142B1DB012042
:10079000029035E04FF0000AD14626E04FF0000805
:1007A00012E004EBC90000EBE800017808F0070252
:1007B00001209040014205D04FF07E51504617F085
:1007C00018F9824608F10108B045EADB029817F0F3
:1007D00035F90090019917F051F98346514617F009
:1007E00035F900D804E009F10109681E4845D5DC57
:1007F00000BFE049029841F820900298401C029006
:10080000781C02998142C5DB0020029032E00299F7
:1008100091FBF7F1D74A52F82120029991FBF7F1A9
:10082000491CD44B53F82110501800EBD0714910DB
:10083000D14A1268029B42F82310029991FBF7F209
:1008400007FB1211CA4A52F82120029991FBF7F3D3
:1008500007FB1311491CC64B53F82110501800EB2D
:10086000D0714910C54A1268029B42F823100298C1
:10087000401C029007FB07F002998842C7DCBDE8E4
:10088000FE8F2DE9F34F8FB0402440200A901025B1
:10089000AA000021B94800680FF083FAAA000021DD
:1008A000B54800680FF07DFA042321460A9A0F9894
:1008B000FFF7E0FEE2000021B14800680FF071FA96
:1008C00000200B9060E3AC4801680B9851F82000C1
:1008D0000290AA4801680B9851F8200001900298F4
:1008E0000830402801DD402001E0029808300890DF
:1008F00001980830402801DD402001E001980830CF
:1009000006900298083801D5002001E002980838C6
:1009100009900198083801D5002001E001980838B5
:10092000079009980E9027E307980D901CE3DDE9E6
:100930000D120F98FFF781FE8146DDE90D12491C6B
:100940000F98FFF77AFE022101FB0099DDE90D12F5
:10095000891C0F98FFF771FE81440E9A921C0D9925
:100960000F98FFF76AFEA9EB00090E9A921C0D99E9
:10097000491C0F98FFF761FE022101FB10990E9AA6
:10098000921C0D99891C0F98FFF757FEA9EB0000E8
:1009900007B2DDE90D12891C0F98FFF74EFE814664
:1009A0000E9A521C0D99891C0F98FFF746FE0221E2
:1009B00001FB00990E9A921C0D99891C0F98FFF764
:1009C0003CFE8144DDE90D120F98FFF736FEA9EBDE
:1009D00000090E9A521C0D990F98FFF72EFE022166
:1009E00001FB10990E9A921C0D990F98FFF725FEA6
:1009F000A9EB00000FFA80F8002F02DBB8F1000F1E
:100A000000DA00BF41463846FFF792FD0390039895
:100A100041100B9801FB05060398401C40100B99F0
:100A200000FB0510059002990E98401A083000EB63
:100A30000010019A0D99891A08440830514951F85B
:100A400020000490039810281CD2DFE800F0081C56
:100A50004A629FB3F2F0EFEEEDECEBEAE9E83846DC
:100A600016F0ECFF8246049917F008F881464448D6
:100A7000006850F82610484616F0BBFF4049096848
:100A800041F826006CE2A7EB080016F0D7FF82467B
:100A9000049916F0F3FF81463948006850F8261093
:100AA000484616F0A6FF3649096841F82600404638
:100AB00016F0C4FF8346344916F0E0FF82460499DD
:100AC00016F0DCFF81462E480268059852F8201087
:100AD000484616F08EFF2A490968059A41F8220017
:100AE0003EE2404616F0AAFF8346274916F0C6FFAD
:100AF0008246049916F0C2FF81462148006850F8EA
:100B00002610484616F075FF1D49096841F8260071
:100B100026E2384616F092FF83461B4916F0AEFFD8
:100B20008246049916F0AAFF81461548006850F8DD
:100B30002610484616F05DFF1149096841F8260065
:100B4000A8EB070016F07AFF8246049916F096FF8C
:100B500081460B480268059852F82010484616F066
:100B600048FF07490A68059942F82100F8E10000AA
:100B7000885706209C570620509102204C91022055
:100B80004091022028740408F704B53F404616F04F
:100B900055FF8246049916F071FF8146FE480068B1
:100BA00050F82610484616F024FFFB49096841F822
:100BB0002600D5E107EB080016F040FF82460499B5
:100BC00016F05CFF8146F448006850F8261048464D
:100BD00016F00FFFF049096841F82600B7F1000947
:100BE00001DB494601E0C9F10001084616F026FF85
:100BF000EA49009016F042FF8346049916F03EFF42
:100C00008246E5480068059A50F82210504616F0D2
:100C1000F0FEE1490968059A41F82200A0E166E189
:100C20004DE111E1F5E0BFE09FE069E04DE018E043
:100C3000FFE7404616F002FF8346D84916F01EFF34
:100C40008246049916F01AFF8146D348006850F88E
:100C50002610484616F0CDFECF49096841F8260017
:100C60007EE1404616F0EAFE8346CC4916F006FFC8
:100C70008246049916F002FF8146C748006850F882
:100C80002610484616F0B5FEC349096841F826000B
:100C900017EB080901D4494601E0C9F100010846F3
:100CA00016F0CCFE8346049916F0E8FE8246BA4858
:100CB0000068059A50F82210504616F09AFEB64980
:100CC0000968059A41F822004AE1B7F1000901DB01
:100CD000494601E0C9F10001084616F0AFFE83461F
:100CE000049916F0CBFE8246AB48006850F82610F7
:100CF000504616F07EFEA849096841F826002FE10B
:100D0000A8EB070016F09AFE8246049916F0B6FE8C
:100D10008146A148006850F82610484616F069FE42
:100D20009D49096841F82600B8F1000901DB4946F0
:100D300001E0C9F10001084616F080FE97490090D5
:100D400016F09CFE8346049916F098FE824692485F
:100D50000068059A50F82210504616F04AFE8E4957
:100D60000A68059942F82100FAE0B8F1000901DBB0
:100D7000494601E0C9F10001084616F05FFE8749C7
:100D8000009016F07BFE8346049916F077FE8246AB
:100D90008148006850F82610504616F02AFE7E4919
:100DA000096841F82600DBE0B7F1000901DB49469C
:100DB00001E0C9F10001084616F040FE77490090B5
:100DC00016F05CFE8346049916F058FE824672487F
:100DD000006850F82610504616F00BFE6E49096860
:100DE00041F82600A7EB080016F028FE8246049979
:100DF00016F044FE814668480268059852F82010B3
:100E0000484616F0F6FD64490A68059942F8210043
:100E1000A6E0B8F1000901DB494601E0C9F1000193
:100E2000084616F00BFE8346049916F027FE82460C
:100E30005948006850F82610504616F0DAFD564919
:100E4000096841F826008BE017EB080901D44946F0
:100E500001E0C9F10001084616F0F0FD834604994F
:100E600016F00CFE82464C48006850F8261050469A
:100E700016F0BFFD4849096841F82600B7F100099E
:100E800001DB494601E0C9F10001084616F0D6FD34
:100E90004249009016F0F2FD8346049916F0EEFDEB
:100EA00082463D480068059A50F82210504616F0D8
:100EB000A0FD39490A68059942F8210050E03846FA
:100EC00016F0BCFD8346354916F0D8FD82460499DC
:100ED00016F0D4FD81463048006850F82610484688
:100EE00016F087FD2C49096841F8260038E0B8F172
:100EF000000901DB494601E0C9F10001084616F08E
:100F00009DFD2649009016F0B9FD8346049916F020
:100F1000B5FD82462048006850F82610504616F06D
:100F200068FD1D49096841F8260017EB080901D43E
:100F3000494601E0C9F10001084616F07FFD8346ED
:100F4000049916F09BFD82461348006850F826105D
:100F5000504616F04EFD1049096841F8260000BFC2
:100F600000BF0D98401C0D9006990D9888427FF7A0
:100F7000DEAC0E98401C0E9008990E9888427FF7C0
:100F8000D3AC0B98401C0B900B98A8427FF49BAC01
:100F900000200B901FE0000040910220F704B53FB5
:100FA00000200C9011E0DDE90B0101FB0506FF4973
:100FB000096851F82600FE4915F0DCF8FD4909687A
:100FC00041F826000C98401C0C900C980828EADB8D
:100FD0000B98401C0B900B981028E1DB11B0BDE87A
:100FE000F08F2DE9FF4F8BB004460D461E46199F2A
:100FF0000020079090E2079805EB80000088ADF88C
:101000002800079805EB80004088ADF82A00079873
:10101000401C05EB80000088ADF824000798401CB8
:1010200005EB80004088ADF82600BDF92800BDF929
:101030002410884272D1BDF92A00089067E0002E82
:1010400041D04FF0FF383AE04FF0FF30069031E0EA
:10105000089810EB08002AD4089800EB08011898AB
:10106000814224DABDF92800069940181FD4BDF941
:10107000281006980844B84219DABDF928100698D5
:10108000084405900898404404EBC000059900EB23
:10109000E100007801F0070201219140084308991E
:1010A000414404EBC101059A01EBE2010870069886
:1010B000401C069006980228CAD108F10108B8F130
:1010C000020FC1D116E0BDF928000590089804EB85
:1010D000C001059801EBE0000078059901F00702D6
:1010E000012191400843089904EBC102059902EBE4
:1010F000E1010870BDF92600BDF92A10884203DD20
:101100000898401C089002E00898401E0890BDF91D
:1011100026100898814292D1FBE1FFE7BDF92A0031
:10112000BDF92610884275D1BDF9280008906AE003
:10113000002E42D04FF0FF383BE04FF0FF300690DA
:1011400032E00699089840182BD40699089808446C
:101150001899884225DABDF92A0010EB080020D43E
:10116000BDF92A004044B8421BDA069908980844A1
:101170000590BDF92A00404404EBC001059801EB3D
:10118000E0000078059901F0070201219140084331
:10119000BDF92A10414404EBC102059902EBE101BB
:1011A00008700698401C069006980228C9D108F1DC
:1011B0000108B8F1020FC0D118E008980590BDF9F8
:1011C0002A0004EBC001059801EBE00001780598C6
:1011D00000F00702012090400143C8B2BDF92A1077
:1011E00004EBC101059A01EBE2010870BDF924008E
:1011F000BDF92810884203DD0898401C089002E0E1
:101200000898401E0890BDF92410089881428FD19B
:101210007FE1FFE7BDF92410BDF92820881A16F0F8
:101220000DFC8246BDF92610BDF92A20881A16F059
:1012300005FC8346514616F0F1FB814616F0D2FBC1
:10124000CDE9020121F00041CDE900015AA00CC80E
:10125000009816F061FB13D2BDF92410BDF92820C7
:10126000881A16F0EBFB8146BDF92610BDF92A203D
:10127000881A16F0E3FB8246494616F0CFFB12E0CF
:10128000BDF92610BDF92A20881A16F0D7FB814631
:10129000BDF92410BDF92820881A16F0CFFB82462C
:1012A000494616F0BBFB0490BDF92420BDF9283057
:1012B000D01ABDF92620BDF92A30D11A01D40B4627
:1012C00000E04B42002801DB024600E0424293422C
:1012D0006BDA002008907EE0089816F0AFFB0390D0
:1012E000049916F0CBFB834616F0A1FBBDF92A103A
:1012F00000EB0109BDF92800089900EB010A002E56
:101300003CD04FF0FF3835E04FF0FF3006902CE036
:1013100019EB080026D409EB08001899884221DA55
:1013200006981AEB00001DD406985044B84219DA0A
:101330000AF10100059009EB080004EBC0000599D3
:1013400000EBE1000178059800F0070201209040D1
:101350000143C8B209EB080104EBC101059A01EB96
:10136000E20108700698401C069006980228CFD12A
:1013700008F10108B8F1020FC6D113E0CDF814A0AE
:1013800004EBC900DDF814A000EBEA0001780AF0D4
:101390000702012090400143C8B204EBC90101EBF0
:1013A000EA010870BDF924000AE01EE04091022025
:1013B00085EBD13E44910220000000000000F03F88
:1013C000BDF92810884203DD0898401C089002E00F
:1013D0000898401E0890BDF92400BDF92810401A55
:1013E000089988427FF478AF92E0BDF92420BDF9D6
:1013F0002830D01ABDF92620BDF92A30D11A01D4DF
:101400000B4600E04B42002801DB024600E042426E
:1014100093427DDB0020089072E0BDF92A10089805
:1014200001EB0009089816F009FB0390049916F0E7
:1014300025FB834616F0FBFABDF9281000EB010AE4
:10144000002E3CD04FF0FF3835E04FF0FF300690D3
:101450002CE019EB080026D409EB0801189881420A
:1014600021DA06981AEB00001DD406985044B842C1
:1014700019DA06985044059009EB080004EBC00007
:10148000059900EBE1000178059800F007020120C2
:1014900090400143C8B209EB080104EBC101059A71
:1014A00001EBE20108700698401C0690069802289D
:1014B000CFD108F10108B8F1020FC6D113E0CDF881
:1014C00014A004EBC900DDF814A000EBEA000178D9
:1014D0000AF00702012090400143C8B204EBC901A1
:1014E00001EBEA010870BDF92600BDF92A10884217
:1014F00003DD0898401C089002E00898401E089000
:10150000BDF92600BDF92A10411A0898814284D1FC
:1015100000BF0798401C07900D98411E0798814214
:101520007FF469AD0FB0BDE8F08F2DE9F04F099C55
:1015300015464FF0FF360F46B4464FF0000935E030
:1015400000EB890ABAF902A0BA4504DA00EB890A6D
:10155000BAF902A000E0BA46574600EB890ABAF988
:1015600000A0AA4504DA00EB890ABAF900A000E05D
:10157000AA46554600EB890ABAF902A0E24504DD05
:1015800000EB890ABAF902A000E0E246D44600EB7B
:10159000890ABAF900A0B24504DD00EB890ABAF95C
:1015A00000A000E0B246564609F10109DDF828A086
:1015B000D145C5DBACEB070A0AF1010A93FBFAFA45
:1015C0000AF1010EA6EB050A0AF1010A94FBFAFAE8
:1015D0000AF101084FF000092BE000EB890ABAF983
:1015E00002A0AAEB070A0AFB03FAACEB070B0BF10C
:1015F000010B9AFBFBFAF2440FFA8AFA00EB890B13
:10160000ABF802A000EB890ABAF900A0AAEB050A20
:101610000AFB04FAA6EB050B0BF1010B9AFBFBFA94
:10162000C2440FFA8AFA00EB890BABF800A009F16B
:101630000109DDF828A0D145CFDBBDE8F08F2DE909
:10164000FF4784B014461D46BDF91000BDF91410C3
:10165000884223D1002619E0BDF81000296804EB68
:1016600081010880BDF81200304400B2296804EB03
:10167000810148802868401C2860BDF91600BDF92A
:101680001210884201DD761C00E0761EBDF91600BE
:10169000BDF91210401AB042DED1E9E0BDF91200E6
:1016A000BDF91610884223D1002619E0BDF81200BA
:1016B000296804EB81014880BDF81000304400B275
:1016C000296804EB810108802868401C2860BDF966
:1016D0001400BDF91010884201DD761C00E0761E72
:1016E000BDF91400BDF91010401AB042DED1BFE0C0
:1016F000BDF91410BDF91020881A16F09FF9814623
:10170000BDF91610BDF91220881A16F097F9824615
:10171000494616F083F9804616F064F9CDE90201D6
:1017200021F00041CDE90001AFF274300CC80098FF
:1017300016F0F2F813D2BDF91410BDF91020881A72
:1017400016F07CF98046BDF91610BDF91220881AF2
:1017500016F074F98146414616F060F912E0BDF9C1
:101760001610BDF91220881A16F068F98046BDF9E6
:101770001410BDF91020881A16F060F98146414610
:1017800016F04CF90746BDF91420BDF91030D01AF7
:10179000BDF91620BDF91230D11A01D40B4600E074
:1017A0004B42002801DB024600E0424293422FDC1C
:1017B000002625E0BDF81000304400B2296804EB93
:1017C00081010880304616F039F98146394616F015
:1017D00055F9804616F02BF9BDF81210084400B2F6
:1017E000296804EB810148802868401C2860BDF905
:1017F0001400BDF91010884201DD761C00E0761E51
:10180000BDF91400BDF91010401AB042D2D12EE03B
:10181000002625E0BDF81200304400B2296804EB30
:1018200081014880304616F009F98146394616F0A4
:1018300025F9804616F0FBF8BDF81010084400B2F8
:10184000296804EB810108802868401C2860BDF9E4
:101850001600BDF91210884201DD761C00E0761EEC
:10186000BDF91600BDF91210401AB042D2D100BF26
:1018700008B0BDE8F0872DE9F84F04460D4616463E
:10188000701E00EBD0714FEA6109A5EB09000090D2
:10189000CA46A8000EF07EFA8346AA0021465846A2
:1018A00000F068FDB54205DB06EBD6714910B6EBDA
:1018B000410101D1BDE8F88F4F463CE0002004EB28
:1018C0008701088004EB87014880CAF100081BE00B
:1018D00004EB8700008807EB08010BEB8101098806
:1018E000084400B204EB8701088004EB87004088BD
:1018F00007EB08010BEB81014988084400B204EBB7
:101900008701488008F10108D045E1DD04EB87003C
:10191000B0F9000090FBF6F000B204EB87010880FC
:1019200004EB8700B0F9020090FBF6F000B204EB84
:10193000870148807F1C00988742BFDB58460EF025
:1019400022FAB7E72DE9FF4F91B004460D461E9EDF
:101950000327802010900F9040200E900D900020C3
:101960000B900A908146802009900520049029461A
:101970002046049AFFF77FFF4FF0010A29E004EBAD
:101980008A01B1F90010AAF1010204EB8202B2F956
:101990000020881A01D4014600E04142089104EB7E
:1019A0008A01B1F90210AAF1010204EB8202B2F934
:1019B0000220881A01D4014600E041420791DDE986
:1019C0000710884201DB089800E0079881440AF17B
:1019D000010AAA45D3DB4FEA89000EF0DBF9804605
:1019E0004FEA8902002140460EF0DBF94FF0000A71
:1019F00015E00AF1010004EB8001042203A800F0C5
:101A0000B9FC04EB8A01042202A800F0B3FC0AAB83
:101A10004246DDE90201FFF712FE0AF1010A681EE3
:101A20005045E6D14FEA8900B0FBF7F003900EF085
:101A3000B1F90C904FEA8900B0FBF7F002460021A3
:101A400003900C980EF0ADF94FF0000A13E008EB8C
:101A50008A000088DDE90B2101EB8201088008EB98
:101A60008A004088DDE90B2101EB820148800B9858
:101A7000401C0B90BA44CA45E9DB40460EF083F99E
:101A80000B9B0E9ACDE90023DDE90C03DDE90F1273
:101A9000FFF74BFD4FF400720021FD4800680EF087
:101AA00080F9DDE90D23CDE900230123F848DDE9C4
:101AB0000B210068FFF795FA0C980EF064F9F448D2
:101AC00009990068FEF7DDFE2823099ACDE9002375
:101AD0000123F048F0490268F0480068FEF7F2FC84
:101AE0001498012806D0022809D003280CD0042815
:101AF00014D10EE0002006900A20059012E00A2082
:101B00000690242005900DE0242006903E200590AC
:101B100008E0002006903E20059003E0002015B06C
:101B2000BDE8F08F00BF4FF4F8720021DC48006878
:101B30000EF037F94FF0000A40E04FF0000B30E0B4
:101B4000069A524402EB8202D64B03EB421252F841
:101B50002B10D04A126852F82B0015F0E3FF0290C8
:101B6000069A524402EB8202CE4B03EB421252F829
:101B70002B10C84A126852F82B0015F0D3FF0190C1
:101B8000029915F07BFF0390C548006850F83A10A1
:101B9000039815F02EFFC249096841F83A000BF18D
:101BA000010BBBF1280FCBD1504615F047FFBC49C4
:101BB000096801EBCA0148600AF1010ADDE9050183
:101BC000401A5045B9D1DDE90501401A421E0021F5
:101BD000B3480068FEF718FC4FF0000A0EE0B04969
:101BE000096801EBCA01486815F021FF069908440D
:101BF000AD49085C06F80A000AF1010A139882450B
:101C0000EDDB002006F80A00307888E72DE9F84F70
:101C100004460D4616461F46DDF828804FF00009A1
:101C20004FF6FF7AD346012D02DCC846BDE8F88F97
:101C30004FF000091CE004EB8900B0F9001009F135
:101C4000010004EB8000B0F9000081420BD104EBED
:101C50008900B0F9021009F1010004EB8000B0F92D
:101C60000200814200D006E009F101001FFA80F96C
:101C7000681E4845DFDC00BF681E484500D1D5E737
:101C80004FF0000919E004EB8900B0F9000050455D
:101C900004DA04EB890000881FFA80FA04EB89005B
:101CA000B0F90200584504DA04EB890040881FFAB5
:101CB00080FB09F101001FFA80F9A945E3DB4FF031
:101CC000000915E004EB89000088A0EB0A0000B2CF
:101CD00004EB8901088004EB89004088A0EB0B002D
:101CE00000B204EB8901488009F101001FFA80F974
:101CF000A945E7DB3B46324629462046CDF8008021
:101D0000FFF720FE92E72DE9F84F4FF00009C3F8E6
:101D100000900124EBE0A4F1010900EB8909B9F975
:101D2000005000EB8409B9F900A0CDF800A0A4F19F
:101D3000010900EB8909B9F9026000EB8409B9F9DE
:101D40000270DDF800A0BAEB050901D4CA4601E033
:101D5000C9F1000AD446B7EB060901D4CA4601E02E
:101D6000C9F1000AD646F44559DD4FF0000853E0AA
:101D7000DDF80090A9450ADD05EB08090FFA89F99D
:101D8000D3F800A002EB8A0AAAF8009009E0A5EBBC
:101D900008090FFA89F9D3F800A002EB8A0AAAF819
:101DA0000090B7421ADDD3F800A002EB8A0ABAF914
:101DB00000A0BAEB050901D4CA4601E0C9F1000A46
:101DC0000AFB0EFA9AFBFCFAB2440FFA8AFAD3F82D
:101DD00000B002EB8B0BABF802A01AE0D3F800A026
:101DE00002EB8A0ABAF900A0BAEB050901D4CA4687
:101DF00001E0C9F1000A0AFB0EFA9AFBFCFAA6EB15
:101E00000A0A0FFA8AFAD3F800B002EB8B0BABF890
:101E100002A01B1D08F10108E045A9DB66E04FF0B8
:101E2000000861E0B7420ADD06EB08090FFA89F9FC
:101E3000D3F800A002EB8A0AAAF8029009E0A6EB08
:101E400008090FFA89F9D3F800A002EB8A0AAAF868
:101E50000290DDF80090A94528DDD3F800A002EB40
:101E60008A0ABAF902A0BAEB060901D4CA4601E00F
:101E7000C9F1000A0AFB0CFA9AFBFEFAAA440FFA0F
:101E80008AFAD3F800B002EB8B0BABF800A028E085
:101E90003C91022048910220EC7D040844910220EC
:101EA00054910220ECCD0408ACF40408D3F800A04F
:101EB00002EB8A0ABAF902A0BAEB060901D4CA46B3
:101EC00001E0C9F1000A0AFB0CFA9AFBFEFAA5EB45
:101ED0000A0A0FFA8AFAD3F800B002EB8B0BABF8C0
:101EE00000A01B1D08F10108F0459BDB641C8C421F
:101EF000FFF611AFBDE8F88F704753EA020C00F00F
:101F000069802DE9F04B4FF00006002B1FBFB3FA9C
:101F100083F503FA05F424FA05F65E4012BF164372
:101F2000B2FA82F502FA05F4C5F120051EBF22FAC5
:101F300005FC44EA0C04203556EA044C4FEA1444EC
:101F400018BF641C4FF000084FF00009904271EB7D
:101F5000030C39D3002919BFB1FA81F701FA07F64A
:101F6000B0FA80F700FA07F6C7F120071EBF20FA83
:101F700007FC46EA0C062037B6FBF4FCA7EB050786
:101F8000103F07F01F0BCBF120060CFA0BFB2CFACD
:101F900006F644BFB3460026202FA4BF5E464FF08E
:101FA000000B5BEA060C08BF4FF0010B19EB0B09A5
:101FB000ABFB027C48EB0608C01B06FB02CC0BFB0C
:101FC00003CC71EB0C01C1E70B4602464146484683
:101FD000BDE8F08B13B54FF000004FF00001AFF3F8
:101FE0000080BDE81C4070470FB4044910B503AA37
:101FF000029800F0B9FB10BC5DF814FB0800022049
:1020000070B5044685690068C10601D5302600E038
:102010002026C00707D070BDD4E901213046904783
:10202000206A401C20626D1EF6D570BD70B5044656
:1020300085690078C00707D170BDD4E9012120204F
:102040009047206A401C20626D1EF6D570BD70B5A9
:102050000C460546012A05D02878800600D5EA6995
:10206000002302E0012305E05B1C934202D2E05C06
:102070000028F9D1A869E618C01AA861286A18448E
:1020800028622846FFF7BCFF04E0D5E9012114F8D7
:10209000010B9047B442F8D32846FFF7C7FF70BD45
:1020A0002DE9F0410646002410687529314616A531
:1020B00010D0AFF30080002802DA404213A507E0F9
:1020C00031688A0701D512A502E0490704D511A598
:1020D000012401E0AFF3008000210A2206F1240769
:1020E00009E0B0FBF2FCB0FBF2F302FB1C00303065
:1020F00078541846491C0028F3D123462A46304616
:10210000BDE8F04100F0C0BA000000002D00000062
:102110002B000000200000002DE9F0418046D21D78
:1021200022F007020025D2E90002F52915A614D0F5
:10213000011E72F1000106DA0023D0EB030063EB0D
:10214000020211A608E0D8F800108B0701D50FA6EF
:1021500002E0490701D50EA601251146002408F129
:10216000240704E000F040FA30323A55641C50EA8B
:102170000102F7D12B46324621464046BDE8F041E8
:1021800000F082BA000000002D0000002B000000CB
:102190002000000070B504460D4621461068AFF3DC
:1021A00000802188090502D50F4A7A4402E00E4AD0
:1021B0007A440E32002104F1240305E000F00F06FA
:1021C0000009965D5E54491C0028F7D12078002351
:1021D000000704D5702D02D009B102231132204628
:1021E000BDE8704000F050BA3CD304002DE9F05F28
:1021F000894604464FF0000ADFF874B1FB44C0F88A
:1022000020A02046E1688847002874D0252806D001
:10221000D4E901219047206A401C2062F1E70026A2
:102220005F462046E16888472028054607DB312DB8
:1022300005D2781910F8200C08B10643F1E7B00771
:1022400001D526F00406C4F81CA00027C4F818A085
:102250002A2D09D028460DF08DFD38B304EB8708F0
:10226000303DC8F8185019E059F8041B204604EB1B
:1022700087029161E1688847012F054618D1E0691E
:10228000002820DA26F020061DE0D8F8180000EB20
:10229000800005EB40003038C8F818002046E1689F
:1022A000884705460DF066FD0028EED1012F0AD0C3
:1022B0002E2D08D12046E16888477F1C0546022F55
:1022C00046F02006C4DBA069002803DA404246F04D
:1022D0000106A061F00701D026F010066C2D0BD08E
:1022E000682D09D04C2D39D06A2D35D0742D35D0BC
:1022F0007A2D33D016E038E0E1682F462046884733
:10230000B842054609D16C2F26D04FF48060E168B1
:10231000064320468847054604E06C2F1AD04FF448
:10232000807006430DB3A5F14100192802D820356D
:1023300046F400664A462946204626604E46FDF78A
:10234000A5FF80B101280BD0F61D26F0070000F193
:10235000080956E74020E4E78020D8E70020D6E7C8
:1023600006F104094DE7284652E7206ABDE8F09FD0
:1023700012D30400032A40F2308010F0030C00F066
:10238000158011F8013BBCF1020F624498BF11F8AF
:1023900001CB00F8013B38BF11F8013BA2F1040268
:1023A00098BF00F801CB38BF00F8013B11F00303E0
:1023B00000F06780083AC0F0088051F8043B083A02
:1023C00051F804CBA0E80810F5E7121D5CBF51F8E6
:1023D000043B40F8043BAFF30080D20724BF11F860
:1023E000013B11F801CB48BF11F8012B24BF00F8C5
:1023F000013B00F801CB48BF00F8012B7047431A9E
:1024000028BF9A427FF6B6AF032A1044114440F227
:10241000268010F0030F1EBF11F8013D521E00F878
:10242000013D10F0030F7FF4F6AF11F0030300F04D
:10243000C081083AC0F00B8051F8043D083A51F8C9
:1024400004CD40F8043D40F804CDFFF7F3BF121D62
:102450005CBF51F8043D40F8043DAFF30080D20763
:1024600024BF11F8013D11F801CD48BF11F8012C2E
:1024700024BF00F8013D00F801CD48BF00F8012C51
:10248000704710B5203AC0F00B80B1E81850203AE0
:10249000A0E81850B1E81850A0E81850BFF4F5AF04
:1024A0005FEA027C24BFB1E81850A0E8185044BF8E
:1024B00018C918C0BDE810405FEA827C24BF51F8FB
:1024C000043B40F8043B08BF7047D20728BF31F8EF
:1024D000023B48BF11F8012B28BF20F8023B48BF40
:1024E00000F8012B70474FF000020429C0F0128061
:1024F00010F0030C00F01B80CCF1040CBCF1020FB7
:1025000018BF00F8012BA8BF20F8022BA1EB0C018B
:1025100000F00DB85FEAC17C24BF00F8012B00F881
:10252000012B48BF00F8012B70474FF0000200B5A7
:10253000134694469646203922BFA0E80C50A0E8E6
:102540000C50B1F12001BFF4F7AF090728BFA0E894
:102550000C5048BF0CC05DF804EB890028BF40F860
:10256000042B08BF704748BF20F8022B11F0804FA2
:1025700018BF00F8012B70474FF0013C50F8042BB6
:1025800051F8043B9A4215D1A2EB0C03934313EA92
:10259000CC130BD150F8042B51F8043B9A4209D1CB
:1025A000A2EB0C03934313EACC13E7D04FF00000E7
:1025B000704700BFD01A01BAB1FA81F101F01801D9
:1025C00022FA01F0CB40C1F12001DBB2C0B2C01A47
:1025D0002CFA01F3D11A914311EAC311E6D17047E5
:1025E000704770477047704730B5B0F10A024FEA44
:1025F000900E71F100034EEA817EB0EB0E0061EBAC
:1026000091014FEA101E4EEA017E10EB0E0041EBE5
:1026100011114FEA102E4EEA016E10EB0E0041EB45
:1026200011214FEA104E4EEA014E10EB0E0041EB25
:102630001141401841F100014FEAD00040EA4170D9
:102640004FEAD10110EB80054FEA810444EA90740F
:1026500044EB01046D1944EB0404521BA3414FF0F9
:10266000000348BF0A3200D530BD401C41F10001D3
:1026700030BD10B500F0C8F8006810BD10B50446B4
:1026800000F0C2F8046010BD2DE9F0470D469946F0
:102690009246044600F124080168880604D5E069E2
:1026A00021F01001216000E00120A84201DD471B5C
:1026B00000E00027A1697A1902EB0900081AA0615D
:1026C0002078C00602D42046FFF79AFC002608E0D6
:1026D000D4E901211AF806009047206A401C761CB4
:1026E00020624E45F4DB2078C0060AD52046FFF76D
:1026F00087FC06E0D4E9012130209047206A401C85
:102700002062381EA7F10107F4DC07E0D4E90121BB
:1027100018F805009047206A401C2062281EA5F189
:102720000105F3DC2046FFF781FC2078000602D586
:102730000220BDE8F0870120FBE710B5436913B123
:10274000AFF3008001E0FFF782FC012010BD12789A
:1027500000F124010A7000224A700122EDE711689D
:102760004FF0FF32E9E70000074B70B50D467B44A0
:1027700000F053F80446284600F062F810B14FF01C
:10278000FF3070BD204670BD3B230100431A28BFB7
:102790009A427FF676AE104410F0030F11441EBF2C
:1027A00011F8013D521E00F8013D10F0030F7FF4B7
:1027B000F6AF103AC0F00A8010B531E91850103A5F
:1027C00020E91850BFF4F9AFBDE81040530724BF0B
:1027D00031E9081020E9081044BF51F8043D40F8E1
:1027E000043D12F0030F08BF7047D20728BF31F82D
:1027F000023D48BF11F8012C28BF20F8023D48BF18
:1028000000F8012C7047000000487047B0570620C0
:1028100001694A1C02610878704700B58FB0CDE9A4
:1028200001310021059105497944CDE90310114694
:102830006846FFF7DBFC0FB000BD0000E5FFFFFFBF
:10284000007B00F08000704700487047B0570620BA
:102850007546FFF7F9FFAE4605006946534620F07E
:102860000700854618B020B5FDF754FDBDE82040AF
:102870004FF000064FF000074FF000084FF0000B3C
:1028800021F00701AC46ACE8C009ACE8C009ACE8EF
:10289000C009ACE8C0098D46704710B50446AFF3D7
:1028A00000802046BDE81040FDF718BD10B504F0CB
:1028B000AFFE10BD2DE9F04107460C46002600256D
:1028C00009E036023919491B491E88B200F008F8A0
:1028D0000644681CC5B2A542F3DB3046BDE8F08172
:1028E00070B50446002604F05DFF2546E11704EBB1
:1028F00011610912A02202EB4101C8B204F014FFD9
:1029000004F0A4FFE11704EB11610912A4EB01210B
:10291000C8B204F009FF04F099FF04F043FFA120BE
:1029200004F002FF04F092FF002004F0C7FE064608
:1029300004F062FF304670BD2DE9F04105460E46B9
:102940001746002409E0E20026FA02F2D1B22A1961
:1029500090B200F006F8601CC4B2BC42F3DBBDE8E4
:10296000F08170B504460E4604F01CFF2546E117C1
:1029700004EB11610912A02202EB4101C8B204F07C
:10298000D3FE04F063FFE11704EB11610912A4EB1D
:102990000121C8B204F0C8FE04F058FF304604F02C
:1029A000C3FE04F053FF04F027FF0A200FF006F8DF
:1029B00070BD00BFFEE710B502200FF00BF810BD90
:1029C00010B500224021124801F0E0FF11480068D4
:1029D00020F0C0000F4908600846006840F0400041
:1029E0000860FFF7E8FF002208210A4801F0CEFF47
:1029F000FFF7E1FF01224021054801F0C7FFFFF783
:102A0000DAFF00224021024801F0C0FF10BD0000A3
:102A1000001C02400020024000B587B000BF1648ED
:102A2000006840F08000144908600846006800F023
:102A30008000019000BF00BF00BF0846006840F45E
:102A4000807008600846006800F48070019000BF44
:102A500000BF4020029001200390049003200590C5
:102A600002A9064801F07AFE0820029002A9044853
:102A700001F074FE07B000BD30380240001C024077
:102A80000020024010B500224021124801F07EFFD4
:102A90001148006820F0C0000F490860084600682F
:102AA00040F040000860FFF786FF012208210A4835
:102AB00001F06CFFFFF77FFF01224021054801F084
:102AC00065FFFFF778FF00224021024801F05EFF1A
:102AD00010BD0000001C02400020024070B50546F9
:102AE00000241748006820F0C00015490860084617
:102AF000006808601E200EF06DFF002616E0002220
:102B00004021104801F042FFFFF755FF012240210C
:102B10000C4801F03BFF6006040E0821084801F054
:102B200029FF08B1601CC4B2701CC6B2082EE6DBD7
:102B300015B9FFF7A7FF01E0FFF742FF204670BD80
:102B400000200240001C024070B504461A4800688C
:102B500020F0C000184908600846006840F04000B6
:102B6000086000224021154801F010FFFFF723FF05
:102B700000251EE0E00928B1012208210E4801F0DD
:102B800005FF04E0002208210B4801F0FFFE60066B
:102B9000040E01224021094801F0F8FEFFF70BFF67
:102BA00000224021054801F0F1FEFFF704FF681CF8
:102BB000C5B2082DDEDB70BD00200240001C0240C3
:102BC00010B51248006820F0C0001049086008469F
:102BD000006840F040000860012208210B4801F025
:102BE000D5FE012240210A4801F0D0FE1E200EF041
:102BF000F1FE00220821054801F0C8FEFFF7DBFEC8
:102C000000224021024801F0C1FE10BD0020024018
:102C1000001C024010B51048006820F0C0000E49AA
:102C200008600846006840F040000860012240212A
:102C30000A4801F0ABFE1E200EF0CCFE0022082157
:102C4000054801F0A3FEFFF7B6FE01220821024865
:102C500001F09CFE10BD000000200240001C02405C
:102C600010B500241648006820F0C0001449086020
:102C700008460068086001220821114801F086FE1C
:102C8000012240210F4801F081FEFFF794FE09E088
:102C9000601CC4B2FA2C03DDFFF7BCFF012010BD9D
:102CA000FFF789FE0821064801F064FE0028EFD1F5
:102CB00000224021034801F069FE0020EFE70000F8
:102CC00000200240001C024010B509F0D7FD09F0B9
:102CD00087FD0348006840F004000149086010BD0A
:102CE0009CEF00E0704730B5034614460022DA68D6
:102CF0000022D1E9000540EA05200D8940EA05409F
:102D00000D7B40EA05600243DA60002030BD30B53B
:102D10000346144600229A680022D1E9000540EAE1
:102D200005200D8940EA05400D7B40EA056002431D
:102D30009A60002030BD000010B5024600231368E1
:102D40000A480340486840F008008C682043CC687B
:102D500020430C6920434C6940EA44208C6940EAD6
:102D6000443003431360002010BD00008101F0FFD8
:102D700070B504461D460023B5F5804F13D154F8B5
:102D800022300C480340D1E9000640EA06108E6864
:102D900040EA06208E8940EA06408E6930430343AC
:102DA00044F8223003E06FF0704044F82200002025
:102DB00070BD00000000F0CF10B502460023086887
:102DC00052F820301B480340D1E901042043CC686D
:102DD00020430C6920434C6920438C692043CC6913
:102DE00020430C6A20434C6A20438C6A2043CC6AFF
:102DF00020430C6B20438C6B20434C6B20430343DC
:102E00008868082801D143F04003086842F8203060
:102E1000086BB0F5801F05D1086818B110680C6BFD
:102E200020431060086818B110684C6B2043106094
:102E3000002010BD8004C0FF30B5034614460022B8
:102E4000601C53F8202002F04042D1E9000540EA1E
:102E500005108D6840EA05208D8940EA0545088AFD
:102E6000401E45EA0055087D801E45EA00608D69D8
:102E700028430243601C43F82020186800F48010A7
:102E800038B1586820F47002088A401E42EA0052A5
:102E90005A60002030BD30B5024600230024086887
:102EA000012816D013686FF30E03D1E901052843FA
:102EB000CD6828430D6928434D6928438D6928430F
:102EC000CD6928430D6A28434D6A284303431360A4
:102ED00019E0136823F4F843D1E9070528434D6A44
:102EE0002843034354686FF30E04D1E901052843D6
:102EF000CD6828430D6928434D6928438D692843CF
:102F0000044313605460002030BD0246506940EA1B
:102F10004100506100207047F8B506460C46154642
:102F2000002000900027D4E900010843A168491E51
:102F300040EA4110E16840EA412000900098306189
:102F400001F02AFD074609E0681C38B125B101F0FF
:102F500023FDC01BA84201D90320F8BDB06900F0D1
:102F600020000028F0D100BFF7E7000070B503464D
:102F7000154600220024012D1FD09A6802F07042ED
:102F80000868401E4E68761E40EA06168868401E95
:102F900046EA0026C868401E46EA0036088A401EF7
:102FA00046EA0046888A401E46EA0056087E401ED1
:102FB00046EA006002439A6022E09A6811480240A3
:102FC000C868401E0603888A401E46EA0050024335
:102FD000DC6804F070440868401E4E68761E40EAC3
:102FE00006168868401E46EA0026088A401E46EA01
:102FF0000046087E401E46EA006004439A60DC609A
:10300000002070BDFF0F0FFF00B587B000BF404824
:10301000006840F080003E4908600846006800F003
:103020008000009000BF00BF00BF0846006840F469
:10303000807008600846006800F48070009000BF4F
:1030400000BF802001900020029001200390032007
:10305000049001A92F4801F081FB4FF4807001908A
:103060000120029001A92C4801F078FBFFF7D4FC65
:1030700000224FF48071284801F088FC14200EF0E3
:103080009DFC01221102244801F080FC32200EF048
:1030900095FC00208DF81800012206A900F03EF9E9
:1030A000012206A9A42000F039F916208DF8180095
:1030B000012206A9802000F031F90C208DF81800BB
:1030C000012206A9882000F029F9022206A9A120E0
:1030D00000F02AF89DF81800302803D19DF8190057
:1030E000032807D09DF81900012803D09DF8190086
:1030F00002280BD19DF819009DF8182000EB022141
:1031000006A0FEF771FF002007B000BD0120FBE71D
:1031100030380240001C024000200240435450203E
:1031200049443A25780D0A002DE9F04106460F463C
:103130001546FFF745FD7020FFF706FDFFF790FDF0
:10314000F0B2FFF701FDFFF78BFDFFF739FD7120AE
:10315000FFF7FAFCFFF784FD00240BE0691EA14293
:1031600001D0012100E000210846FFF7B7FC3855E7
:10317000601CC4B2AC42F1DBFFF74CFDBDE8F0814E
:1031800071B581B00024002660480078401C5F497A
:103190000870084600780A2190FBF1F201FB12004A
:1031A00018B15A4800780A287EDA012201A90220C3
:1031B000FFF7BAFF9DF8040000F00F0000287ED052
:1031C0009DF8040000F00F00062878DA9DF804004E
:1031D00000F00F01FF208840C5B2E84380B240F004
:1031E000C0004B498886002459E04948808E01215F
:1031F000A1400840F0B3474931F814000422694661
:10320000FFF792FF424890F8440000F00100C0B17F
:103210009DF801009DF8001001F00F0100EB012165
:103220003B48203020F814109DF803009DF8021050
:1032300001F00F0100EB012035490C3121F8140099
:103240001DE09DF801009DF8001001F00F0100EB5A
:10325000012031490988081A81B22D480C3020F824
:1032600014109DF803009DF8021001F00F0100EB0F
:10327000012000E011E02649203121F814009DF8DA
:10328000000000F0F000802807D000212048203006
:1032900020F81410143820F81410601CC4B2052C47
:1032A000A3DB01261A4800E009E0808920B918480C
:1032B000008C08B9002001900020144908709DF886
:1032C000040000F01F00B8B9114890F8340000F075
:1032D000800030B10E48808E20F080000C49888636
:1032E0000AE04FF6FF700A4988810884084690F882
:1032F000340000F0E000888604480078F02802DD01
:103300000A200249087030467CBD000027000220D8
:103310002C00022076C20108405303202DE9F04121
:1033200005460E4617464FF00008FFF749FC70208F
:10333000FFF70AFCFFF794FCE8B2FFF705FCFFF784
:103340008FFC00240BE0305DFFF7FEFBFFF788FCED
:103350008046B8F1000F00D003E0601CC4B2BC424C
:10336000F1DB00BFFFF756FC4046BDE8F0810000EE
:1033700038B504464FF0AA3000900949897901FB1D
:1033800004F004236A46002108F0B8FE0449897954
:103390006143481C04236A46002108F0AFFE38BD93
:1033A000A85403202DE9FC4704460D4600275DE0A4
:1033B0004FF0000820E001A830490090B1F80290D9
:1033C0004FEAE97109EB91718B102C49897901FB66
:1033D00004F02A46002108F0C5FC28494888C11796
:1033E00000EB9171BDF80420B2EBA10F00D007E013
:1033F00008F101001FFA80F8204880794045DADCA6
:1034000000BF1E488079404502D10020BDE8FC87FE
:10341000204608F0FFF9064626B1394618A0FEF707
:10342000E3FD21E0681CF8B10020019016E013498B
:10343000B1F802904FEAE97109EB91718B100F49D5
:103440008979BDF8042004FB01200022114608F010
:1034500023FEBDF80400401C80B20190074880792B
:10346000BDF804108842E2DC781C87B2032F9FDB92
:10347000214609A0FEF7B8FD0120C7E7A8540320A4
:103480006572726F7220657261736520626C6F6322
:103490006B3A25640D0A000062616420626C6F6300
:1034A0006B20636865636B65643A25640D0A0000F0
:1034B00038B50446002000900F49897901FB04F0DB
:1034C00001236A46002108F095FC9DF80000FF28C2
:1034D00010D1094989796143481C01236A460021BA
:1034E00008F088FC9DF80000FF2801D1002038BDBD
:1034F0000120FCE70220FAE7A85403202DE9FE4F43
:1035000081460F4692461D460024002002908046C8
:10351000019000263B488079B9FBF0F83948807962
:10352000B9FBF0F100FB1190019000BF404600F0A4
:10353000E1F8064633484089B04202D20120BDE896
:10354000FE8F00243AE00198844221D305B32D4830
:103550004088C01BA84205D22A484088C01B1FFAD9
:1035600080FB01E01FFA85FB264ACDF800B0927976
:1035700006FB0241234A927908FB024053463A4631
:1035800007F05AFF02900027DA44A5EB0B050AE08A
:103590001C4A927906FB02411A4A927908FB0240C2
:1035A00008F04EF80290029830B13046FFF7E0FE86
:1035B000012000F029F8B9E7601C84B21148807935
:1035C000A042C0DC0F488079A04219D1304600F0FB
:1035D00099FA404608F01EF900240CE009484069B9
:1035E00030F81400404504D10649496921F81460B7
:1035F00005E0601C84B203484089A042EEDC00BFB5
:1036000000209CE7A8540320F8B5054600260024B6
:1036100006E04FF6FF703049496921F81400641C38
:103620002D484089A042F4D800202B4988810024ED
:1036300033E02949897901FB04F004236A4600211B
:1036400008F0D8FB9DF80000FF2809D145B12249B8
:1036500089796143481C01236A46002108F0CAFBAE
:103660009DF80000FF2813D19DF802009DF803107B
:1036700000EB012618484089B04203D91649496930
:1036800021F8164014488089401C1349888103E0C2
:10369000214612A0FEF7A8FC641C0F484089A042F6
:1036A000C7D800240BE00C48406930F814000A49E0
:1036B0004989884202DB0849CC8104E0641C064841
:1036C0004089A042EFD800BF0348C089642801DACE
:1036D0000220F8BD0020FCE7A854032062616420AA
:1036E000626C6F636B20696E6465783A25640D0ABD
:1036F0000000000070B50546002418484089401EAF
:1037000017490968884204D214484089401E144968
:10371000086005F001011248006800F023F8044633
:10372000601C90B90D484089401E0D4909688842C7
:103730000BD90A484089401E0949086005F001017B
:103740000748006800F00EF80446601C10B94FF0FE
:10375000FF3070BD024804602046FAE7A8540320F9
:1037600020000220F8B505460E46002000900024F7
:103770006C1C14E0601E00F00100B0420ED1611E0E
:10378000094A927901FB02F004236A46002108F0FD
:1037900031FB0098401C08B9601EF8BD641E002C67
:1037A000E8D1601EF9E70000A8540320F8B5002610
:1037B00000202D498881002417E02046FFF778FE7D
:1037C00005468DB9204608F025F805463DB121464D
:1037D00026A0FEF709FC2046FFF7CAFD04E02248B8
:1037E0008089401C20498881641C1F484089A04270
:1037F000E3D81D48818921A0FEF7F6FB1A4880898D
:10380000642801DA0120F8BD17488089C0EB401018
:1038100000EB4000642190FBF1F6002000900024B2
:1038200015E02046FFF744FE05467DB90E4989792B
:1038300001FB04F002236A46194608F05FFC009879
:10384000401C00900098B04200D104E0641C06487F
:103850004089A042E5D800BF0120FFF7D5FE08B19E
:103860000220D0E70020CEE7A85403204261642064
:10387000626C6F636B3A25640D0A0000676F6F64BA
:103880005F626C6F636B6E756D3A25640D0A0000A4
:1038900010B508F017F808B1012010BD1F484069A5
:1038A00020B11E484169002012F0E8FB1B48408906
:1038B0004100002012F0F4FB184948610A46528981
:1038C0005100164A5069FEF70EFE1448406908B9C7
:1038D0000120E2E70120FFF797FE044664B110A043
:1038E000FEF782FBFFF762FF0446002C13D012A004
:1038F000FEF77AFB0220D0E70848418913A0FEF7C3
:1039000073FB0648818917A0FEF76EFB0348C18947
:1039100019A0FEF769FB0020BFE70000A8540320B0
:10392000666F726D6174206E616E6420666C617387
:10393000682E2E2E0D0A0000666F726D617420666F
:1039400061696C6564210D0A00000000746F746188
:103950006C20626C6F636B206E756D3A25640D0A86
:1039600000000000676F6F6420626C6F636B206EF5
:10397000756D3A25640D0A0076616C696420626C8D
:103980006F636B206E756D3A25640D0A00000000B0
:10399000014600220648C089884202D24FF6FF70D5
:1039A00070470348406930F811201046F8E70000DE
:1039B000A85403202DE9FF4F83B014469A460026F1
:1039C000002500BF97E04E48408890FBF4F04C493A
:1039D0008979484304992944B1FBF0F00290029898
:1039E000FFF7D6FF834646484189594503D8012051
:1039F00007B0BDE8F08F4248408890FBF4F04049A2
:103A00008979484304992944B1FBF0F200FB121074
:103A1000604301903A4841880198B0FBF1F0384981
:103A200089790BFB0108364841880198B0FBF1F217
:103A300001FB120932484088A0EB0900B0FBF4F00A
:103A400087B2AAEB0500B84202D2AAEB050087B202
:103A500007FB04F083B21FFA89F14046039A08F08D
:103A600033F80646032E39D107FB04F083B21FFA60
:103A700089F14046039A08F027F80646032E2DD117
:103A800007FB04F31FFA89F14046039AFFF736FD5E
:103A90001B488079B8FBF0F0311F0090FFF782FCE3
:103AA00006467EB916488079B8FBF0F000210090F8
:103AB000FFF778FC064612488079B8FBF0F00090DA
:103AC00007F0A8FE4EB10E488079B8FBF0F00090E8
:103AD000FFF74EFC0120FFF797FD0026042E00D1D2
:103AE00000260EB1022083E7039804FB0700039031
:103AF000781E05446D1C5545FFF465AF002077E73F
:103B0000A854032038B50446CC200090002506496F
:103B1000897901FB04F001236A46194608F0EEFAA0
:103B20000546284638BD0000A85403202DE9FF4F64
:103B300087B014469A464FF0000B0025681E02908D
:103B400000BFA7E05648408890FBF4F054498979BB
:103B5000484308992944B1FBF0F005900598FFF718
:103B600017FF06464E484189B14203D801200BB0E9
:103B7000BDE8F08F4A48408890FBF4F048498979C5
:103B8000484308992944B1FBF0F200FB121060434E
:103B90000390434841880398B0FBF1F0404989798C
:103BA00006FB010004903E4841880398B0FBF1F207
:103BB00001FB12093A484088A0EB090080B2069048
:103BC000BDF8180090FBF4F080B20690AAEB050057
:103BD00087B2BDF81800874201DBBDF8187007FBFB
:103BE00004F806A81FFA89F1C8F38F034FF0FF32DB
:103BF0000090049808F0B6F88346BBF1000F01D09E
:103C00000220B4E7BDF81800B0EB980F09D11FFAF5
:103C100088F31FFA89F1079A049808F07BF9834624
:103C200001E04FF0010BBBF1000F07D10298B04249
:103C300004D03046FFF766FF83460296BBF1000FC3
:103C400022D0174880791649498848430399401A79
:103C5000B0FBF4F080B20690AAEB050087B2BDF885
:103C60001800874201DBBDF8187007FB04F81FFA43
:103C700089F14346079A0498FFF740FC8346BBF15D
:103C8000000F01D0032072E7781E054407984044D6
:103C900007906D1C5545FFF455AF002067E7000005
:103CA000A854032000B589B000BF4A48006840F01E
:103CB0008000484908600846006800F080000190D4
:103CC00000BF00BF00BF0846006840F48070086075
:103CD0000846006800F48070019000BF00BF80209B
:103CE000029000200390012004900320059002A977
:103CF000394800F033FD4FF48070029001200390AA
:103D000002A9364800F02AFDFEF786FE00224FF495
:103D10008071324800F03AFE0A200DF04FFE012279
:103D200011022E4800F032FE0A200DF047FE8020DE
:103D300002900020039004900320059002A92648D9
:103D400000F00CFD64200DF039FE042207A948F2B2
:103D5000401000F05BF800208DF8200007A920A09B
:103D6000FEF742F921A107A8FEF706FC78BB022066
:103D70008DF81C00012207A948F2400000F0E2F98A
:103D8000012207A948F2470000F040F89DF81C0006
:103D900060280DDA9DF81C1016A0FEF725F91A48C8
:103DA000808845F21051884202D1012000F09CF930
:103DB0000A200DF003FE00208DF81C00012207A947
:103DC00048F2400000F0BEF9002009B000BDFFE756
:103DD0000120FAE730380240001C02400020024077
:103DE0004354502049443A25730D0A003931343781
:103DF0000000000044656661756C74205665723A77
:103E000025640D0A00000000405303202DE9F04115
:103E100005460F461646FEF7D3FE2820FEF794FE11
:103E2000FEF71EFF2812FEF78FFEFEF719FFE8B21D
:103E3000FEF78AFEFEF714FFFEF7C2FE2920FEF70A
:103E400083FEFEF70DFF00240BE0711EA14201D09E
:103E5000012100E000210846FEF740FE3855601CB5
:103E6000C4B2B442F1DBFEF7D5FEBDE8F08100003C
:103E700071B583B00024002697480078401C96490D
:103E80000870084600780A2190FBF1F201FB12004D
:103E900018B1914800780A2871DA012203A948F282
:103EA0004E10FFF7B3FF9DF80C0000F0800068B1E2
:103EB0009DF80C0000F00F00062807DA00200190A2
:103EC000012201A948F24E1000F03CF99DF80C00C7
:103ED00000F00F00002852D09DF80C0000F00F00F9
:103EE0000628D9DA9DF80C0000F00F01FF20884069
:103EF000C0B20190794890F834509DF80400C04356
:103F000080B240F0C0007549888608468189818268
:103F1000018C0185002487E07048808E0121A1403A
:103F2000084000287ED06E4931F81400042202A90E
:103F3000FFF76CFF6B48808845F21051884236D1FC
:103F4000664890F8440000F00100C8B19DF80800F0
:103F50009DF8091000EB012081B26048203020F864
:103F600014109DF80A009DF80B1000EB0120C0F51D
:103F7000487081B259480C3020F8141052E083E0A8
:103F80009DF808009DF8091000EB012081B253480C
:103F90000C3020F814109DF80A009DF80B1000EB6F
:103FA000012081B24D48203020F814103AE04D48ED
:103FB000808844F24231884234D1484890F8440025
:103FC00000F00100B0B19DF808009DF8091000EB69
:103FD000012081B241480C3020F814109DF80A00ED
:103FE0009DF80B1000EB012081B23C48203020F8F6
:103FF000141017E09DF808009DF8091000EB01204F
:1040000081B23648203020F814109DF80A009DF83F
:104010000B1000EB0120C0F5887081B22F480C30E6
:1040200020F81410601CC4B2052CFFF675AF0126F1
:104030002A4880892B490988884205DC2748008C5A
:104040002849498888421CDD9DF80C0000F00F00CB
:1040500001280ADD2148C089204988810846408C12
:10406000088400201C4908700EE01C48808A1B4907
:1040700088810846008D0884802003900846858644
:1040800002E00020144908709DF80C0000F08F0039
:10409000802817D1114890F8340000F0800030B12A
:1040A0000E48808E20F080000C4988860AE04FF68A
:1040B000FF700A4988810884084690F8340000F0AF
:1040C000E000888604480078F02802DD0A200249D2
:1040D0000870304604B070BD280002202C00022079
:1040E00038C301084053032038B50546002400209A
:1040F0008DF800008DF8015000BF09E09DF8000028
:104100000F49095D0844C0B28DF80000601CC4B2BC
:10411000B82CF3D39DF80000C043401CC0B28DF80A
:104120000000B822064948F2470000F00BF80222CE
:10413000694648F2FF0000F005F8002038BD000095
:1041400080C201082DE9F04104460E4617464FF0A3
:104150000008FEF735FD2820FEF7F6FCFEF780FD8F
:104160002012FEF7F1FCFEF77BFDE0B2FEF7ECFC5F
:10417000FEF776FD00250BE0705DFEF7E5FCFEF72F
:104180006FFD8046B8F1000F00D003E0681CC5B297
:10419000BD42F1DB00BFFEF73DFD4046BDE8F081CA
:1041A00000B589B000BF4748006840F0800045492D
:1041B00008600846006800F08000019000BF00BF62
:1041C00000BF0846006840F4807008600846006838
:1041D00000F48070019000BF00BF8020029000209A
:1041E0000390012004900320059002A9364800F0B6
:1041F000B5FA4FF4807002900120039002A9334871
:1042000000F0ACFAFEF708FC00224FF480712F4852
:1042100000F0BCFB0A200DF0D1FB012211022B485B
:1042200000F0B4FB0A200DF0C9FB802002900020B2
:10423000039004900320059002A9234800F08EFA11
:1042400064200DF0BBFB042207A948F2401000F0E7
:1042500055F800208DF8200007A91DA0FDF7C4FE29
:104260001FA107A8FEF788F948BB02208DF81C00A3
:10427000012207A948F24000FFF764FF012207A9C5
:1042800048F24700FFF7C2FD9DF81C00412807DAFD
:104290009DF81C1014A0FDF7A7FE012000F068F99E
:1042A0000A200DF08BFB00208DF81C00012207A9CD
:1042B00048F24000FFF746FF002009B000BD012092
:1042C000FBE7000030380240001C024000200240A2
:1042D0004354502049443A25730D0A0D0A0000004A
:1042E000393237310000000044656661756C742016
:1042F0005665723A25640D0A000000002DE9F04170
:1043000005460F461646FEF75BFC2820FEF71CFC10
:10431000FEF7A6FC2812FEF717FCFEF7A1FCE8B298
:10432000FEF712FCFEF79CFCFEF74AFC2920FEF784
:104330000BFCFEF795FC00240BE0711EA14201D09E
:10434000012100E000210846FEF7C8FB3855601C3B
:10435000C4B2B442F1DBFEF75DFCBDE8F0810000C1
:1043600071B583B00020019000267D480078401C84
:104370007B490870084600780A2190FBF1F201FBA6
:10438000120018B1764800780A286EDA012203A9D3
:1043900048F24E10FFF7B2FF9DF80C0000F08000CD
:1043A00068B19DF80C0000F00F000B2807DA002020
:1043B0000190012201A948F24E1000F007F99DF882
:1043C0000C0000F00F0000284FD09DF80C0000F00A
:1043D0000F000B28D9DA9DF80C0000F00F014FF602
:1043E000FF70884084B25F48858EE04380B240F021
:1043F000C0005C49888608468189C183018C41865A
:104400000020019053E05748808E9DF80420012140
:104410009140084040B354499DF8042031F81200FF
:10442000062202A9FFF76AFF4E4890F8440000F008
:104430000100D8B19DF80A009DF80B1000EB012097
:1044400081B2484820309DF8042020F812109DF8D1
:1044500008009DF8091000EB012081B241480C30A2
:104460009DF8042020F812101CE051E09DF80A008D
:104470009DF80B1000EB0120C0F5487081B239485F
:104480000C309DF8042020F812109DF808009DF8CB
:10449000091000EB012081B2324820309DF8042041
:1044A00020F812109DF80400401CC0B201909DF845
:1044B00004000A28A7DB01262A4880892B4909889D
:1044C000884205DC2748008C2849498888421CDD41
:1044D0009DF80C0000F00F0001280ADD2148C0897A
:1044E000204988810846408C088400201C490870B7
:1044F0000EE01C48C08B1B4988810846408E08840A
:10450000802003900846858602E000201449087048
:104510009DF80C0000F08F00802816D1114890F80B
:10452000340000F0800030B10E48808E20F0800012
:104530000C49888609E04FF6FF700A498881088493
:104540000846808E00F46040888605480078F02890
:1045500002DD0A2002490870304604B070BD000038
:10456000290002202C000220FCC301084053032034
:1045700038B50546002400208DF800008DF8015064
:1045800000BF09E09DF800000F49095D0844C0B272
:104590008DF80000601CC4B2B82CF3D39DF8000065
:1045A000C043401CC0B28DF80000BA22064948F250
:1045B000470000F00BF80222694648F2FF0000F0C5
:1045C00005F8002038BD000042C301082DE9F04184
:1045D00004460E4617464FF00008FEF7F1FA282071
:1045E000FEF7B2FAFEF73CFB2012FEF7ADFAFEF73B
:1045F00037FBE0B2FEF7A8FAFEF732FB00250BE02E
:10460000705DFEF7A1FAFEF72BFB8046B8F1000FB4
:1046100000D003E0681CC5B2BD42F1DB00BFFEF76D
:10462000F9FA4046BDE8F0812DE9F05F8246884600
:1046300014462046E21704EB5272D2102146E317CB
:1046400004EB5373DB10A4EBC3030BB1012300E0B5
:1046500000231A44624302F0FF099AF800600AF14D
:10466000010082460578812E05DB402D03DBFF2DFE
:1046700001D0FF2E0DD14FF0000B06E0002008F80E
:10468000010B0BF1010000F0FF0BCB45F6DBBDE8A1
:10469000F09F7F2D03DAA5F14000C5B202E0A5F13D
:1046A0004100C5B2A6F18100C6B2BE2010FB065083
:1046B00000FB09F70C2C06D0102C0DD0182C14D0B0
:1046C000202C24D11AE01348D0F80900C1194A4619
:1046D00040460AF01FFE1AE00E48D0F81100C1193A
:1046E0004A4640460AF016FE11E00A48D0F8190082
:1046F000C1194A4640460AF00DFE08E00548D0F8C8
:104700002100C1194A4640460AF004FE00BF00BF1E
:1047100000BFBCE788120620014691F83500022848
:1047200003D08020486501207047052081F83500BE
:104730000868006820F001000A6810600020F3E7B4
:1047400031B5002400F028F9044600BF00F024F938
:10475000001B00998842F9D338BD0000F8B5024625
:104760000B46002100250024002000BFE4E00126C4
:1047700006FA01F51E6806EA0504AC4271D15E68CE
:10478000022E02D05E68122E13D1CF0802F120064D
:1047900056F827004E07F70E0F26BE40B0434F07CE
:1047A000FF0E1E69BE403043CF0802F1200646F8D6
:1047B000270010684F000326BE40B0431E7906F064
:1047C00003064F00BE40304310605E68012E08D0E3
:1047D0005E68022E05D05E68112E02D05E68122E31
:1047E00013D190684F000326BE40B0434F00DE68EF
:1047F000BE4030439060506801268E40B0431E7921
:10480000C6F300168E4030435060D0684F00032638
:10481000BE40B0434F009E68BE403043D0605E68EB
:1048200006F08056B6F1805FA8D100BF444E3668CE
:1048300046F48046424F3E603E46366806F4804667
:10484000009600BF00BF3F4E8F0856F827008E0726
:10485000370F0F26BE40B0433B4EB24202D1002676
:104860002EE068E0394EB24201D1012628E0384EF0
:10487000B24201D1022623E0364EB24201D10326D4
:104880001EE0354EB24201D1042619E0334EB24249
:1048900001D1052614E0324EB24201D106260FE0C6
:1048A000304EB24201D107260AE02F4EB24201D16A
:1048B000082605E02D4EB24201D1092600E00A2665
:1048C0008F073F0FBE4030431E4E8F0846F827002B
:1048D000274E3068A0435E6806F48036B6F5803F08
:1048E00000D12043224E3060361D3068A0435E6800
:1048F00006F40036B6F5003F00D120431C4E361DAD
:104900003060361D3068A0435E6806F48016B6F548
:10491000801F00D12043164E08363060361D3068A7
:10492000A0435E6806F40016B6F5001F00D12043D0
:104930000F4E0C363060491C1029FFF418AFF8BD3B
:1049400044380240083801400000024000040240A0
:1049500000080240000C0240001002400014024017
:1049600000180240001C02400020024000240240C7
:10497000003C0140024613690B400BB1012000E0EE
:104980000020704742694A40426170470AB1816124
:1049900001E00B0483617047014800687047000024
:1049A0000000022002480068401C0149086070476E
:1049B0000000022010B50848006840F40070064965
:1049C0000860052000F008FB0F2000F007F800F059
:1049D0001BFA002010BD0000003C024070B50446E8
:1049E000074800684FF47A71B0FBF1F5284602F0F1
:1049F000DBFB00222146501E00F0B0FA002070BD03
:104A00003891022070B504460E46154600BF94F852
:104A1000A000012801D1022070BD012084F8A0006F
:104A200000BF022084F8A10005EB850101EBC5025F
:104A300004F1380101EB820034223146FDF721FDFB
:104A40002A463146204606F0EDFB012021684862E7
:104A500084F8A10000BF002084F8A00000BF00BFC0
:104A6000DAE7000070B50446002500260CB90120E5
:104A700070BD94F8A10028B9002084F8A000204659
:104A800000F084F8022084F8A1002068806920F0FA
:104A9000704021688861D4E901010843E168084356
:104AA0002169084321688969084321688861206871
:104AB00080683549084021688860A08A050420681C
:104AC0008068A16929430843216888602068C0681C
:104AD0002D4908402168C860A08B05042068C06883
:104AE000216A294308432168C86020680069264973
:104AF000084021680861A08C050420680069A16A4B
:104B00002943084321680861206840691E4908401C
:104B100021684861A08D050420684069216B294304
:104B200008432168486194F83500050294F836007E
:104B300006042068C06A00F07F402168C86246EA27
:104B4000050094F8341008432168C96A08432168B5
:104B5000C8622068406B40F0040021684863206808
:104B6000406B40F00200216848632068806940F093
:104B70000100216888610020C4F8A400012084F8A5
:104B8000A100002074E7000000F800F010B586B026
:104B9000044600BF4748006840F08060454908600F
:104BA0000846006800F08060009000BF00BF00BFB2
:104BB00040481438006840F400003E491439086049
:104BC0000846006800F40000009000BF00BF00BF6E
:104BD0000846006840F0020008600846006800F0DF
:104BE0000200009000BF00BF00BF0846006840F010
:104BF000200008600846006800F02000009000BF18
:104C000000BF00BF0846006840F04000086008464A
:104C1000006800F04000009000BF00BF00BF0846E1
:104C2000006840F0800008600846006800F08000DE
:104C3000009000BF00BF00BF0846006840F48070CD
:104C400008600846006800F48070009000BF00BF54
:104C5000202001900120029003900320049001A9DC
:104C60001548FFF77BFD4FF4806001900220029011
:104C700000200390032004900E20059001A90F4806
:104C8000FFF76CFD4FF40C60019001A90C48FFF791
:104C900065FD4FF47E40019001A90A48FFF75EFDD3
:104CA00040F2F760019001A90748FFF757FD06B0F1
:104CB00010BD0000443802400004024000140240CD
:104CC00000180240001C0240002002402DE9F04183
:104CD00004460E461746984600BF94F8A0000128E7
:104CE00002D10220BDE8F081012084F8A00000BFBD
:104CF000022084F8A10008EB880000EBC80104F151
:104D0000380000EB81052E60A86A30446860AF600F
:104D1000E86A3844E86042462946204606F082FAAE
:104D200001202168486284F8A10000BF002084F8B7
:104D3000A00000BF00BFD5E72DE9F04105460E46B3
:104D40001746984600BF95F8A000012802D102201E
:104D5000BDE8F081012085F8A00000BF022085F8A1
:104D6000A10008EB880000EBC80105F1380000EB5A
:104D70008104002020602068304460600020A06032
:104D8000A0683844E060A662E762424621462846B1
:104D900006F048FA01202968486285F8A10000BFA2
:104DA000002085F8A00000BF00BFD1E74178154A78
:104DB00011600178F9B1121D41681160017B09078A
:104DC000C27A41EA0261827A41EAC241427B41EA07
:104DD0008241827B41EA4241C27B41EA0241427AFE
:104DE00041EA0221027A41EA420102781143054A6E
:104DF0000832116005E00021024A121D1160121DE7
:104E00001160704798ED00E0704770B504460E469B
:104E100015460CB9012070BD94F8210028B9002076
:104E200084F82000204600F019F8211D2068FDF7C5
:104E300083FF3146D4E90002FDF769FF2946D4E932
:104E40000002FDF750FF2068006840F00400216870
:104E50000860012084F821000020DCE710B586B04E
:104E6000044600BF3148006840F001002F49086047
:104E70000846006800F00100009000BF00BF00BFBE
:104E80002A480838006840F00800284908390860B6
:104E90000846006800F00800009000BF00BF00BF97
:104EA0000846006840F0100008600846006800F0FE
:104EB0001000009000BF00BF00BF0846006840F02F
:104EC000400008600846006800F04000009000BF05
:104ED00000BF402001900020029001200390032099
:104EE000049001A91248FFF739FC4FF400700190BB
:104EF0000220029000200390032004900C200590D3
:104F000001A90C48FFF72AFC4DF633000190002060
:104F1000039001A90648FFF721FC4FF4F0600190CF
:104F200001A90548FFF71AFC06B010BD3838024049
:104F3000000C0240001802400010024001460846E2
:104F4000002809DB00F01F0301229A4043099B005F
:104F500003F1E023C3F8002100BF70472DE9F05FA3
:104F600080460D46164600270AF060FB0746394684
:104F70002A46334601F00700C0F1070ABAF1040FD0
:104F800002D94FF0040A01E0C0F1070AD14600F14E
:104F9000040ABAF1070F02D24FF0000A01E0A0F1B3
:104FA000030AD4464FF0010A0AFA09FAAAF1010AE3
:104FB0000AEA020A0AFA0CFA4FF0010B0BFA0CFB90
:104FC000ABF1010B0BEA030B4AEA0B042146404606
:104FD0000AF034FBBDE8F09F00BF00F00702064B6B
:104FE00019684FF6FF031940044B0B4343EA0221B3
:104FF000014B196000BF70470CED00E00000FA059E
:1050000038B5002400BF2048006840F080501E4999
:1050100008600846006800F08050009000BF00BFA4
:105020001A48006840F4803018490860FFF7B4FC63
:10503000044607E0FFF7B0FC001BB0F57A7F01D90A
:10504000032038BD1148406800F48030B0F5803F3F
:10505000F0D10E48006840F400300C490860FFF7BA
:105060009BFC044607E0FFF797FC001BB0F57A7F36
:1050700001D90320E5E70548406800F40030B0F5A9
:10508000003FF0D10020DCE74038024000700040D3
:105090002DE9F84304460D4616460127FFF77CFC30
:1050A0008046A86900B100BFE86900B100BF286A66
:1050B00000B100BF00BF94F83800012802D10220DF
:1050C000BDE8F883012084F8380000BF94F8390067
:1050D000012828D10020E063022084F839004346EB
:1050E000002220212046009607F054FB0746DFB936
:1050F00000222946204607F0E4F9686A78B9434659
:10510000012202212046009607F044FB07465FB9C2
:1051100002202168C860012084F8390004E00120E1
:1051200084F8390000E0022700BF002084F838002E
:1051300000BF3846C4E70000F8B504460125FFF774
:105140002BFC06460CB90120F8BD206A402800D08F
:1051500000BF00BF94F83800012801D10220F3E716
:10516000012084F8380000BF94F8390050B90020BD
:1051700084F83800204600F04BF841F28831204690
:1051800000F015F92068006820F4F851A068401E6E
:1051900041EA002021680860206C3346002220216B
:1051A0000090204607F0F6FA054635BB2179E06805
:1051B00040EA0160E1690843216A084321680968FF
:1051C000114A1140084321680860208A616941EA58
:1051D0000040A1690843216849680C4A114008430E
:1051E000216848602068006840F00100216808607C
:1051F0000020E063012084F8390000BF002084F81B
:10520000380000BF28469FE72FFFFF00FEF8E0FFB1
:1052100010B586B0044600BF2948006840F002007F
:10522000274908600846006800F00200009000BFAF
:1052300000BF00BF22480838006840F00200204943
:10524000083908600846006800F00200009000BFBE
:1052500000BF00BF0846006840F020000860084614
:10526000006800F02000009000BF00BF40200190C7
:105270000220029001200390032004900A20059050
:1052800001A91048FFF76AFA4FF44070019000201E
:1052900003900320049001A90B48FFF75FFA042054
:1052A00001900920059001A90648FFF757FAC02090
:1052B000019001A90448FFF751FA06B010BD0000A3
:1052C0003838024000040240001402402DE9F84F33
:1052D00004460E4617460025FFF75EFB8046206811
:1052E000D0F81890206800F1200A00BF94F8380028
:1052F000012802D10220BDE8F88F012084F838008F
:1053000000BF94F83900012849D10020E063002E45
:105310003FD0222084F8390020680069401C608654
:1053200020680069401C2086E6622068406920F001
:10533000406040F08060216848612068C0F81890A3
:1053400012E04346012206212046009707F022FA88
:10535000054605B10BE09AF80010E26A501CE062C5
:105360001170608E401E6086608E0028E9DC00BFF0
:105370005DB94346012202212046009707F00AFA50
:10538000054615B902202168C860012084F839005B
:1053900006E0E06B40F00800E063012500E0022534
:1053A00000BF002084F8380000BF2846A3E701644E
:1053B00070472DE9F84304460E4617460025FFF7CF
:1053C000EBFA8046206800F1200900BF94F838000D
:1053D000012802D10220BDE8F883012084F83800BA
:1053E00000BF94F83900012844D10020E063002E6A
:1053F0003AD0122084F8390020680069401C60858A
:1054000020680069401C208566622068406920F0A1
:1054100040602168486112E0434601220421204691
:10542000009707F0B7F9054605B10BE0616A481C23
:105430006062087889F80000608D401E6085608D8C
:105440000028E9DC00BF5DB9434601220221204665
:10545000009707F09FF9054615B902202168C8603A
:10546000012084F8390006E0E06B40F00800E063BA
:10547000012500E0022500BF002084F8380000BFAD
:105480002846A8E72DE9F843044600260025002712
:10549000A846A946207800F0010088B100BFFE4868
:1054A000006820F40000FC49086008460068616B51
:1054B0000843F949086000BF606B08B94FF0010864
:1054C000206800F40020B0F5002F13D1F24884309A
:1054D000006820F44010E16B0843EF498431086014
:1054E000E06BB0F5801F01D14FF00108E06B08B907
:1054F0004FF00109206800F48010B0F5801F13D12F
:10550000E5488430006820F44000216C0843E249FB
:1055100084310860206CB0F5800F01D14FF0010894
:10552000206C08B94FF00109206800F08070B0F1DC
:10553000807F01D14FF00108207800F02000202862
:1055400070D100BFD4483830006840F08050D24954
:10555000383108600846006800F08050009000BFB5
:1055600000BFCE48006840F48070CC490860FFF767
:1055700013FA064607E0FFF70FFA801B642802D9EA
:105580000320BDE8F883C548006800F48070002857
:10559000F1D0C1486830006800F4407585B3208EB2
:1055A00000F44070A8422BD0BB486830006820F45B
:1055B0004075B9486830006840F48030B6496831B9
:1055C00008600846006820F48030086008460560DE
:1055D000006800F0010098B1FFF7DEF9064608E028
:1055E000FFF7DAF9801B41F28831884201D90320A4
:1055F000C7E7A94868300068C0F340000028EFD032
:1056000000BF208E00F44070B0F5407F0BD1A2485F
:10561000006820F4F810A24A216B114008439E490B
:10562000086006E010E09C48006820F4F8109A49F1
:105630000860994868300068218EC1F30B01084367
:1056400095496831086000BF207800F010001028EC
:1056500010D100BF90488430006820F080708E49DF
:105660008431086008460068A16B08438A49843188
:10567000086000BF208800F48040B0F5804F09D159
:1056800085488830006820F44030616E08438249C4
:1056900088310860208800F40040B0F5004F09D13F
:1056A0007D488830006820F44020A16E08437A4984
:1056B00088310860206800F48030B0F5803F09D15F
:1056C00075488830006820F44010E16E0843724944
:1056D00088310860206800F40030B0F5003F09D13F
:1056E0006D488830006820F44000216F08436A4903
:1056F00088310860207800F04000402809D16648D1
:105700008830006820F00300616C084362498831EA
:105710000860207800F08000802809D15E48883039
:10572000006820F00C00A16C08435B4988310860D8
:10573000208800F48070B0F5807F09D15648883009
:10574000006820F03000E16C08435349883108605C
:10575000208800F40070B0F5007F09D14E488830F1
:10576000006820F0C000216D08434B498831086073
:10577000208800F48060B0F5806F09D146488830F9
:10578000006820F44070616D084343498831086027
:10579000208800F40060B0F5006F09D13E488830E1
:1057A000006820F44060A16D08433B4988310860DF
:1057B000208800F48050B0F5805F09D136488830E9
:1057C000006820F44050E16D084333498831086097
:1057D000208800F40050B0F5005F09D12E488830D1
:1057E000006820F44040216E08432B49883108604E
:1057F000206800F48000B0F5800F09D12648883079
:10580000006820F08060A16F084323498831086058
:10581000206800F40010B0F5001F0FD11E4888303A
:10582000006820F00060E16F08431B498831086080
:10583000E06FB0F1006F01D14FF00109207800F066
:105840000800082801D14FF00109206800F48020E9
:10585000B0F5802F09D110488830006820F04070E2
:10586000616F08430C4988310860206800F400002B
:10587000B0F5000F0AD108488830006820F0805049
:10588000D4F880100843044988310860206800F08B
:105890008060B0F1806F05E0083802400070004081
:1058A000FFFCFF0F08D1FE48006820F00050D4F83C
:1058B00084100843FA490860206800F00060B0F1E5
:1058C000006F0AD1F648001F006820F00070D4F87D
:1058D00088100843F249091F0860206800F08050D2
:1058E000B0F1805F0AD1EE48001F006820F08060B0
:1058F000D4F88C100843EA49091F0860B8F1010F79
:1059000003D02068B0F1007F7DD1E5489038006871
:1059100020F08060E24990390860FFF73DF80646C4
:1059200006E0FFF739F8801B642801D9032028E638
:10593000DB4890380068C0F3C0600028F1D12078BF
:1059400000F00100F0B3606BE0BBD5480C38006894
:1059500000F440304FF4403191FAA1F1B1FA81F1F5
:1059600020FA01F5CE480C38006800F070604FF066
:10597000706191FAA1F1B1FA81F120FA01F747F6CD
:10598000C07191FAA1F1B1FA81F1606888404FF4D9
:10599000403191FAA1F1B1FA81F105FA01F1084320
:1059A0004FF0706191FAA1F1B1FA81F107FA01F1BA
:1059B00008434FF0E04292FAA2F2B2FA82F2A168F2
:1059C000914000E003E00843B5490C3908602068C5
:1059D00000F40020B0F5002F03D1E06BB0F5801F7C
:1059E00009D0206800F48010B0F5801F50D1206CE1
:1059F000B0F5800F4CD1AA480C38006800F4403054
:105A00004FF4403100E0CFE091FAA1F1B1FA81F119
:105A100020FA01F5A2480C38006800F0E0404FF091
:105A2000E04191FAA1F1B1FA81F120FA01F747F6CC
:105A3000C07191FAA1F1B1FA81F1606888404FF428
:105A4000403191FAA1F1B1FA81F105FA01F108436F
:105A50004FF0706292FAA2F2B2FA82F2E1689140DB
:105A600008434FF0E04191FAA1F1B1FA81F107FA50
:105A700001F108438A490C3908608948001F006811
:105A800020F01F00616A491E08438549091F08600C
:105A9000206800F08070B0F1807F3FD180480C38E2
:105AA000006800F070604FF0706191FAA1F1B1FAF6
:105AB00081F120FA01F57A480C38006800F0E040E6
:105AC0004FF0E04191FAA1F1B1FA81F120FA01F72A
:105AD00047F6C07191FAA1F1B1FA81F1606888408E
